{
  "_format": "hh-sol-artifact-1",
  "contractName": "Transfers",
  "sourceName": "contracts/Transfer.sol",
  "abi": [
    {
      "anonymous": false,
      "inputs": [
        {
          "indexed": true,
          "internalType": "address",
          "name": "previousOwner",
          "type": "address"
        },
        {
          "indexed": true,
          "internalType": "address",
          "name": "newOwner",
          "type": "address"
        }
      ],
      "name": "OwnershipTransferred",
      "type": "event"
    },
    {
      "inputs": [
        {
          "internalType": "address",
          "name": "",
          "type": "address"
        },
        {
          "internalType": "address",
          "name": "",
          "type": "address"
        },
        {
          "internalType": "uint256",
          "name": "",
          "type": "uint256"
        },
        {
          "internalType": "bytes",
          "name": "",
          "type": "bytes"
        }
      ],
      "name": "onERC721Received",
      "outputs": [
        {
          "internalType": "bytes4",
          "name": "",
          "type": "bytes4"
        }
      ],
      "stateMutability": "nonpayable",
      "type": "function"
    },
    {
      "inputs": [],
      "name": "owner",
      "outputs": [
        {
          "internalType": "address",
          "name": "",
          "type": "address"
        }
      ],
      "stateMutability": "view",
      "type": "function"
    },
    {
      "inputs": [],
      "name": "renounceOwnership",
      "outputs": [],
      "stateMutability": "nonpayable",
      "type": "function"
    },
    {
      "inputs": [
        {
          "internalType": "address",
          "name": "newOwner",
          "type": "address"
        }
      ],
      "name": "transferOwnership",
      "outputs": [],
      "stateMutability": "nonpayable",
      "type": "function"
    },
    {
      "inputs": [
        {
          "internalType": "address",
          "name": "from",
          "type": "address"
        },
        {
          "internalType": "address payable",
          "name": "to",
          "type": "address"
        },
        {
          "internalType": "address",
          "name": "token",
          "type": "address"
        },
        {
          "internalType": "uint256",
          "name": "amount",
          "type": "uint256"
        }
      ],
      "name": "transferTokens",
      "outputs": [],
      "stateMutability": "nonpayable",
      "type": "function"
    }
  ],
  "bytecode": "0x608060405234801561001057600080fd5b5061002d61002261003260201b60201c565b61003a60201b60201c565b6100fe565b600033905090565b60008060009054906101000a900473ffffffffffffffffffffffffffffffffffffffff169050816000806101000a81548173ffffffffffffffffffffffffffffffffffffffff021916908373ffffffffffffffffffffffffffffffffffffffff1602179055508173ffffffffffffffffffffffffffffffffffffffff168173ffffffffffffffffffffffffffffffffffffffff167f8be0079c531659141344cd1fd0a4f28419497f9722a3daafe3b4186f6b6457e060405160405180910390a35050565b610a918061010d6000396000f3fe608060405234801561001057600080fd5b50600436106100575760003560e01c8063150b7a021461005c57806368155ec11461008c578063715018a6146100a85780638da5cb5b146100b2578063f2fde38b146100d0575b600080fd5b610076600480360381019061007191906105cb565b6100ec565b604051610083919061073d565b60405180910390f35b6100a660048036038101906100a19190610568565b610100565b005b6100b0610223565b005b6100ba6102ab565b6040516100c791906106eb565b60405180910390f35b6100ea60048036038101906100e5919061053f565b6102d4565b005b600063150b7a0260e01b9050949350505050565b600073ffffffffffffffffffffffffffffffffffffffff168273ffffffffffffffffffffffffffffffffffffffff16146101a8578173ffffffffffffffffffffffffffffffffffffffff166323b872dd8585846040518463ffffffff1660e01b815260040161017193929190610706565b600060405180830381600087803b15801561018b57600080fd5b505af115801561019f573d6000803e3d6000fd5b5050505061021d565b8273ffffffffffffffffffffffffffffffffffffffff166108fc829081150290604051600060405180830381858888f1935050505061021c576040517f08c379a000000000000000000000000000000000000000000000000000000000815260040161021390610778565b60405180910390fd5b5b50505050565b61022b6103cc565b73ffffffffffffffffffffffffffffffffffffffff166102496102ab565b73ffffffffffffffffffffffffffffffffffffffff161461029f576040517f08c379a000000000000000000000000000000000000000000000000000000000815260040161029690610798565b60405180910390fd5b6102a960006103d4565b565b60008060009054906101000a900473ffffffffffffffffffffffffffffffffffffffff16905090565b6102dc6103cc565b73ffffffffffffffffffffffffffffffffffffffff166102fa6102ab565b73ffffffffffffffffffffffffffffffffffffffff1614610350576040517f08c379a000000000000000000000000000000000000000000000000000000000815260040161034790610798565b60405180910390fd5b600073ffffffffffffffffffffffffffffffffffffffff168173ffffffffffffffffffffffffffffffffffffffff1614156103c0576040517f08c379a00000000000000000000000000000000000000000000000000000000081526004016103b790610758565b60405180910390fd5b6103c9816103d4565b50565b600033905090565b60008060009054906101000a900473ffffffffffffffffffffffffffffffffffffffff169050816000806101000a81548173ffffffffffffffffffffffffffffffffffffffff021916908373ffffffffffffffffffffffffffffffffffffffff1602179055508173ffffffffffffffffffffffffffffffffffffffff168173ffffffffffffffffffffffffffffffffffffffff167f8be0079c531659141344cd1fd0a4f28419497f9722a3daafe3b4186f6b6457e060405160405180910390a35050565b60006104ab6104a6846107dd565b6107b8565b9050828152602081018484840111156104c357600080fd5b6104ce8482856108cf565b509392505050565b6000813590506104e581610a16565b92915050565b6000813590506104fa81610a2d565b92915050565b600082601f83011261051157600080fd5b8135610521848260208601610498565b91505092915050565b60008135905061053981610a44565b92915050565b60006020828403121561055157600080fd5b600061055f848285016104d6565b91505092915050565b6000806000806080858703121561057e57600080fd5b600061058c878288016104d6565b945050602061059d878288016104eb565b93505060406105ae878288016104d6565b92505060606105bf8782880161052a565b91505092959194509250565b600080600080608085870312156105e157600080fd5b60006105ef878288016104d6565b9450506020610600878288016104d6565b93505060406106118782880161052a565b925050606085013567ffffffffffffffff81111561062e57600080fd5b61063a87828801610500565b91505092959194509250565b61064f81610899565b82525050565b61065e8161081f565b82525050565b61066d81610843565b82525050565b600061068060268361080e565b915061068b8261094f565b604082019050919050565b60006106a360228361080e565b91506106ae8261099e565b604082019050919050565b60006106c660208361080e565b91506106d1826109ed565b602082019050919050565b6106e58161088f565b82525050565b60006020820190506107006000830184610655565b92915050565b600060608201905061071b6000830186610655565b6107286020830185610646565b61073560408301846106dc565b949350505050565b60006020820190506107526000830184610664565b92915050565b6000602082019050818103600083015261077181610673565b9050919050565b6000602082019050818103600083015261079181610696565b9050919050565b600060208201905081810360008301526107b1816106b9565b9050919050565b60006107c26107d3565b90506107ce82826108de565b919050565b6000604051905090565b600067ffffffffffffffff8211156107f8576107f761090f565b5b6108018261093e565b9050602081019050919050565b600082825260208201905092915050565b600061082a8261086f565b9050919050565b600061083c8261086f565b9050919050565b60007fffffffff0000000000000000000000000000000000000000000000000000000082169050919050565b600073ffffffffffffffffffffffffffffffffffffffff82169050919050565b6000819050919050565b60006108a4826108ab565b9050919050565b60006108b6826108bd565b9050919050565b60006108c88261086f565b9050919050565b82818337600083830152505050565b6108e78261093e565b810181811067ffffffffffffffff821117156109065761090561090f565b5b80604052505050565b7f4e487b7100000000000000000000000000000000000000000000000000000000600052604160045260246000fd5b6000601f19601f8301169050919050565b7f4f776e61626c653a206e6577206f776e657220697320746865207a65726f206160008201527f6464726573730000000000000000000000000000000000000000000000000000602082015250565b7f5472616e73666572206f662045544820746f207265636569766572206661696c60008201527f6564000000000000000000000000000000000000000000000000000000000000602082015250565b7f4f776e61626c653a2063616c6c6572206973206e6f7420746865206f776e6572600082015250565b610a1f8161081f565b8114610a2a57600080fd5b50565b610a3681610831565b8114610a4157600080fd5b50565b610a4d8161088f565b8114610a5857600080fd5b5056fea2646970667358221220721a0956e88f2fbd40cab0184e72db20243aa8736ab6f29bf5bc1f66d6fe0c3864736f6c63430008040033",
  "linkReferences": {},
  "deployedLinkReferences": {}
}