{
  "_format": "hh-sol-artifact-1",
  "contractName": "MultiSend",
  "sourceName": "contracts/MultiSend.sol",
  "abi": [
    {
      "anonymous": false,
      "inputs": [
        {
          "indexed": false,
          "internalType": "uint256",
          "name": "total",
          "type": "uint256"
        },
        {
          "indexed": false,
          "internalType": "address",
          "name": "tokenAddress",
          "type": "address"
        }
      ],
      "name": "MultiSended",
      "type": "event"
    },
    {
      "anonymous": false,
      "inputs": [
        {
          "indexed": true,
          "internalType": "address",
          "name": "previousOwner",
          "type": "address"
        },
        {
          "indexed": true,
          "internalType": "address",
          "name": "newOwner",
          "type": "address"
        }
      ],
      "name": "OwnershipTransferred",
      "type": "event"
    },
    {
      "inputs": [
        {
          "internalType": "address",
          "name": "",
          "type": "address"
        },
        {
          "internalType": "address",
          "name": "",
          "type": "address"
        },
        {
          "internalType": "uint256",
          "name": "",
          "type": "uint256"
        },
        {
          "internalType": "bytes",
          "name": "",
          "type": "bytes"
        }
      ],
      "name": "onERC721Received",
      "outputs": [
        {
          "internalType": "bytes4",
          "name": "",
          "type": "bytes4"
        }
      ],
      "stateMutability": "nonpayable",
      "type": "function"
    },
    {
      "inputs": [],
      "name": "owner",
      "outputs": [
        {
          "internalType": "address",
          "name": "",
          "type": "address"
        }
      ],
      "stateMutability": "view",
      "type": "function"
    },
    {
      "inputs": [],
      "name": "renounceOwnership",
      "outputs": [],
      "stateMutability": "nonpayable",
      "type": "function"
    },
    {
      "inputs": [
        {
          "internalType": "address",
          "name": "_tokenAddress",
          "type": "address"
        },
        {
          "internalType": "address[]",
          "name": "_recepients",
          "type": "address[]"
        },
        {
          "internalType": "uint256[]",
          "name": "_amounts",
          "type": "uint256[]"
        }
      ],
      "name": "sendToken",
      "outputs": [],
      "stateMutability": "nonpayable",
      "type": "function"
    },
    {
      "inputs": [
        {
          "internalType": "address",
          "name": "newOwner",
          "type": "address"
        }
      ],
      "name": "transferOwnership",
      "outputs": [],
      "stateMutability": "nonpayable",
      "type": "function"
    },
    {
      "inputs": [
        {
          "internalType": "address",
          "name": "from",
          "type": "address"
        },
        {
          "internalType": "address payable",
          "name": "to",
          "type": "address"
        },
        {
          "internalType": "address",
          "name": "token",
          "type": "address"
        },
        {
          "internalType": "uint256",
          "name": "amount",
          "type": "uint256"
        }
      ],
      "name": "transferTokens",
      "outputs": [],
      "stateMutability": "nonpayable",
      "type": "function"
    }
  ],
  "bytecode": "0x608060405234801561001057600080fd5b5061002d61002261003260201b60201c565b61003a60201b60201c565b6100fe565b600033905090565b60008060009054906101000a900473ffffffffffffffffffffffffffffffffffffffff169050816000806101000a81548173ffffffffffffffffffffffffffffffffffffffff021916908373ffffffffffffffffffffffffffffffffffffffff1602179055508173ffffffffffffffffffffffffffffffffffffffff168173ffffffffffffffffffffffffffffffffffffffff167f8be0079c531659141344cd1fd0a4f28419497f9722a3daafe3b4186f6b6457e060405160405180910390a35050565b610f228061010d6000396000f3fe608060405234801561001057600080fd5b50600436106100625760003560e01c80630a333a0f14610067578063150b7a021461008357806368155ec1146100b3578063715018a6146100cf5780638da5cb5b146100d9578063f2fde38b146100f7575b600080fd5b610081600480360381019061007c91906108df565b610113565b005b61009d60048036038101906100989190610864565b610259565b6040516100aa9190610a78565b60405180910390f35b6100cd60048036038101906100c89190610801565b61026d565b005b6100d7610390565b005b6100e1610418565b6040516100ee9190610a26565b60405180910390f35b610111600480360381019061010c91906107d8565b610441565b005b6000825111610157576040517f08c379a000000000000000000000000000000000000000000000000000000000815260040161014e90610a93565b60405180910390fd5b805182511461016557600080fd5b60005b82518160ff1610156102195761020633848360ff16815181106101b4577f4e487b7100000000000000000000000000000000000000000000000000000000600052603260045260246000fd5b602002602001015186858560ff16815181106101f9577f4e487b7100000000000000000000000000000000000000000000000000000000600052603260045260246000fd5b602002602001015161026d565b808061021190610cf8565b915050610168565b7f61f622a329a69372a43043391304622d3c455605ee7e10c0acd493fb0098bbcd83518560405161024b929190610b13565b60405180910390a150505050565b600063150b7a0260e01b9050949350505050565b600073ffffffffffffffffffffffffffffffffffffffff168273ffffffffffffffffffffffffffffffffffffffff1614610315578173ffffffffffffffffffffffffffffffffffffffff166323b872dd8585846040518463ffffffff1660e01b81526004016102de93929190610a41565b600060405180830381600087803b1580156102f857600080fd5b505af115801561030c573d6000803e3d6000fd5b5050505061038a565b8273ffffffffffffffffffffffffffffffffffffffff166108fc829081150290604051600060405180830381858888f19350505050610389576040517f08c379a000000000000000000000000000000000000000000000000000000000815260040161038090610ad3565b60405180910390fd5b5b50505050565b610398610539565b73ffffffffffffffffffffffffffffffffffffffff166103b6610418565b73ffffffffffffffffffffffffffffffffffffffff161461040c576040517f08c379a000000000000000000000000000000000000000000000000000000000815260040161040390610af3565b60405180910390fd5b6104166000610541565b565b60008060009054906101000a900473ffffffffffffffffffffffffffffffffffffffff16905090565b610449610539565b73ffffffffffffffffffffffffffffffffffffffff16610467610418565b73ffffffffffffffffffffffffffffffffffffffff16146104bd576040517f08c379a00000000000000000000000000000000000000000000000000000000081526004016104b490610af3565b60405180910390fd5b600073ffffffffffffffffffffffffffffffffffffffff168173ffffffffffffffffffffffffffffffffffffffff16141561052d576040517f08c379a000000000000000000000000000000000000000000000000000000000815260040161052490610ab3565b60405180910390fd5b61053681610541565b50565b600033905090565b60008060009054906101000a900473ffffffffffffffffffffffffffffffffffffffff169050816000806101000a81548173ffffffffffffffffffffffffffffffffffffffff021916908373ffffffffffffffffffffffffffffffffffffffff1602179055508173ffffffffffffffffffffffffffffffffffffffff168173ffffffffffffffffffffffffffffffffffffffff167f8be0079c531659141344cd1fd0a4f28419497f9722a3daafe3b4186f6b6457e060405160405180910390a35050565b600061061861061384610b61565b610b3c565b9050808382526020820190508285602086028201111561063757600080fd5b60005b85811015610667578161064d888261071b565b84526020840193506020830192505060018101905061063a565b5050509392505050565b600061068461067f84610b8d565b610b3c565b905080838252602082019050828560208602820111156106a357600080fd5b60005b858110156106d357816106b988826107c3565b8452602084019350602083019250506001810190506106a6565b5050509392505050565b60006106f06106eb84610bb9565b610b3c565b90508281526020810184848401111561070857600080fd5b610713848285610cb8565b509392505050565b60008135905061072a81610ea7565b92915050565b60008135905061073f81610ebe565b92915050565b600082601f83011261075657600080fd5b8135610766848260208601610605565b91505092915050565b600082601f83011261078057600080fd5b8135610790848260208601610671565b91505092915050565b600082601f8301126107aa57600080fd5b81356107ba8482602086016106dd565b91505092915050565b6000813590506107d281610ed5565b92915050565b6000602082840312156107ea57600080fd5b60006107f88482850161071b565b91505092915050565b6000806000806080858703121561081757600080fd5b60006108258782880161071b565b945050602061083687828801610730565b93505060406108478782880161071b565b9250506060610858878288016107c3565b91505092959194509250565b6000806000806080858703121561087a57600080fd5b60006108888782880161071b565b94505060206108998782880161071b565b93505060406108aa878288016107c3565b925050606085013567ffffffffffffffff8111156108c757600080fd5b6108d387828801610799565b91505092959194509250565b6000806000606084860312156108f457600080fd5b60006109028682870161071b565b935050602084013567ffffffffffffffff81111561091f57600080fd5b61092b86828701610745565b925050604084013567ffffffffffffffff81111561094857600080fd5b6109548682870161076f565b9150509250925092565b61096781610c82565b82525050565b61097681610bfb565b82525050565b61098581610c1f565b82525050565b6000610998602483610bea565b91506109a382610d91565b604082019050919050565b60006109bb602683610bea565b91506109c682610de0565b604082019050919050565b60006109de602283610bea565b91506109e982610e2f565b604082019050919050565b6000610a01602083610bea565b9150610a0c82610e7e565b602082019050919050565b610a2081610c6b565b82525050565b6000602082019050610a3b600083018461096d565b92915050565b6000606082019050610a56600083018661096d565b610a63602083018561095e565b610a706040830184610a17565b949350505050565b6000602082019050610a8d600083018461097c565b92915050565b60006020820190508181036000830152610aac8161098b565b9050919050565b60006020820190508181036000830152610acc816109ae565b9050919050565b60006020820190508181036000830152610aec816109d1565b9050919050565b60006020820190508181036000830152610b0c816109f4565b9050919050565b6000604082019050610b286000830185610a17565b610b35602083018461096d565b9392505050565b6000610b46610b57565b9050610b528282610cc7565b919050565b6000604051905090565b600067ffffffffffffffff821115610b7c57610b7b610d51565b5b602082029050602081019050919050565b600067ffffffffffffffff821115610ba857610ba7610d51565b5b602082029050602081019050919050565b600067ffffffffffffffff821115610bd457610bd3610d51565b5b610bdd82610d80565b9050602081019050919050565b600082825260208201905092915050565b6000610c0682610c4b565b9050919050565b6000610c1882610c4b565b9050919050565b60007fffffffff0000000000000000000000000000000000000000000000000000000082169050919050565b600073ffffffffffffffffffffffffffffffffffffffff82169050919050565b6000819050919050565b600060ff82169050919050565b6000610c8d82610c94565b9050919050565b6000610c9f82610ca6565b9050919050565b6000610cb182610c4b565b9050919050565b82818337600083830152505050565b610cd082610d80565b810181811067ffffffffffffffff82111715610cef57610cee610d51565b5b80604052505050565b6000610d0382610c75565b915060ff821415610d1757610d16610d22565b5b600182019050919050565b7f4e487b7100000000000000000000000000000000000000000000000000000000600052601160045260246000fd5b7f4e487b7100000000000000000000000000000000000000000000000000000000600052604160045260246000fd5b6000601f19601f8301169050919050565b7f5f726563657069656e7473206c656e677468206973206772656174657220746860008201527f616e203000000000000000000000000000000000000000000000000000000000602082015250565b7f4f776e61626c653a206e6577206f776e657220697320746865207a65726f206160008201527f6464726573730000000000000000000000000000000000000000000000000000602082015250565b7f5472616e73666572206f662045544820746f207265636569766572206661696c60008201527f6564000000000000000000000000000000000000000000000000000000000000602082015250565b7f4f776e61626c653a2063616c6c6572206973206e6f7420746865206f776e6572600082015250565b610eb081610bfb565b8114610ebb57600080fd5b50565b610ec781610c0d565b8114610ed257600080fd5b50565b610ede81610c6b565b8114610ee957600080fd5b5056fea26469706673582212207df34bbc1f48206e3d6da2c0945045ecce7b6eae022b14eaa2cb3c05df2f1da764736f6c63430008040033",
  "linkReferences": {},
  "deployedLinkReferences": {}
}